{
  "contractName": "AuthenticationContract",
  "abi": [
    {
      "constant": true,
      "inputs": [
        {
          "name": "",
          "type": "bytes32"
        }
      ],
      "name": "data_mapping",
      "outputs": [
        {
          "name": "",
          "type": "string"
        }
      ],
      "payable": false,
      "stateMutability": "view",
      "type": "function",
      "signature": "0x16a3980b"
    },
    {
      "constant": true,
      "inputs": [
        {
          "name": "",
          "type": "address"
        },
        {
          "name": "",
          "type": "uint256"
        }
      ],
      "name": "users_devices",
      "outputs": [
        {
          "name": "",
          "type": "address"
        }
      ],
      "payable": false,
      "stateMutability": "view",
      "type": "function",
      "signature": "0x3192c6c9"
    },
    {
      "constant": true,
      "inputs": [
        {
          "name": "",
          "type": "address"
        },
        {
          "name": "",
          "type": "uint256"
        }
      ],
      "name": "device_tokens",
      "outputs": [
        {
          "name": "UID",
          "type": "bytes32"
        },
        {
          "name": "user",
          "type": "address"
        },
        {
          "name": "dev",
          "type": "address"
        }
      ],
      "payable": false,
      "stateMutability": "view",
      "type": "function",
      "signature": "0x569bac52"
    },
    {
      "constant": true,
      "inputs": [
        {
          "name": "",
          "type": "uint256"
        }
      ],
      "name": "Tokens",
      "outputs": [
        {
          "name": "UID",
          "type": "bytes32"
        },
        {
          "name": "user",
          "type": "address"
        },
        {
          "name": "dev",
          "type": "address"
        }
      ],
      "payable": false,
      "stateMutability": "view",
      "type": "function",
      "signature": "0x953c8133"
    },
    {
      "inputs": [],
      "payable": false,
      "stateMutability": "nonpayable",
      "type": "constructor",
      "signature": "constructor"
    },
    {
      "anonymous": false,
      "inputs": [
        {
          "indexed": false,
          "name": "newAdmin",
          "type": "address"
        },
        {
          "indexed": false,
          "name": "addingAdmin",
          "type": "address"
        }
      ],
      "name": "AdminAdded",
      "type": "event",
      "signature": "0xbf3f493c772c8c283fd124432c2d0f539ab343faa04258fe88e52912d36b102b"
    },
    {
      "anonymous": false,
      "inputs": [
        {
          "indexed": false,
          "name": "user",
          "type": "address"
        },
        {
          "indexed": false,
          "name": "device",
          "type": "address"
        },
        {
          "indexed": false,
          "name": "addingAdmin",
          "type": "address"
        }
      ],
      "name": "UserDeviceMappingAdded",
      "type": "event",
      "signature": "0x2bcf37722896726376c458b554088e6faf08f08a84cf6bb5709da9e1fd968ddf"
    },
    {
      "anonymous": false,
      "inputs": [
        {
          "indexed": false,
          "name": "user",
          "type": "address"
        },
        {
          "indexed": false,
          "name": "deletingAdmin",
          "type": "address"
        }
      ],
      "name": "UserDeviceAllMappingDeleted",
      "type": "event",
      "signature": "0xd583bac0996795f46c61a719ca6954d32d592a449d37914310382ab0d2f64556"
    },
    {
      "anonymous": false,
      "inputs": [
        {
          "indexed": false,
          "name": "newAdmin",
          "type": "address"
        },
        {
          "indexed": false,
          "name": "deletingAdmin",
          "type": "address"
        }
      ],
      "name": "AdminDeleted",
      "type": "event",
      "signature": "0x6ac01b7aa18a8f6fd542477b7bbab44275bf3d95edf08e9404bb423ef2356da1"
    },
    {
      "anonymous": false,
      "inputs": [
        {
          "indexed": false,
          "name": "uid",
          "type": "bytes32"
        },
        {
          "indexed": false,
          "name": "user",
          "type": "address"
        },
        {
          "indexed": false,
          "name": "device",
          "type": "address"
        }
      ],
      "name": "TokenCreated",
      "type": "event",
      "signature": "0x764d4a5ba0079372365fc2412e51052d6a9c7d0a5b97293f41301dd572046ff6"
    },
    {
      "anonymous": false,
      "inputs": [
        {
          "indexed": false,
          "name": "user",
          "type": "address"
        },
        {
          "indexed": false,
          "name": "device",
          "type": "address"
        }
      ],
      "name": "Authenticated",
      "type": "event",
      "signature": "0xd42c368decf104a7572c7884ea7028fe04ef7d3e76dbd706484f9175d6c4ec62"
    },
    {
      "anonymous": false,
      "inputs": [
        {
          "indexed": false,
          "name": "device",
          "type": "address"
        },
        {
          "indexed": false,
          "name": "sender",
          "type": "address"
        }
      ],
      "name": "DeviceDoesnotExist",
      "type": "event",
      "signature": "0x3b86ec0da552157df039c28e2e45926f7bc2e9c85e1f431d201929912acd96b9"
    },
    {
      "anonymous": false,
      "inputs": [
        {
          "indexed": false,
          "name": "sender",
          "type": "address"
        }
      ],
      "name": "ValidationSuccess",
      "type": "event",
      "signature": "0x450fc94914c0b98b910d01457f7b49d0e734ad80103ebd4dea5f1f8ecd3bb0cb"
    },
    {
      "anonymous": false,
      "inputs": [
        {
          "indexed": false,
          "name": "data",
          "type": "string"
        }
      ],
      "name": "SucessfulyRetrievedData",
      "type": "event",
      "signature": "0x4960b5088412785f15ed12cad734be8cef1c471a162a3614c80c428bce6a0d8b"
    },
    {
      "constant": false,
      "inputs": [
        {
          "name": "newAdmin",
          "type": "address"
        }
      ],
      "name": "addAdmin",
      "outputs": [],
      "payable": false,
      "stateMutability": "nonpayable",
      "type": "function",
      "signature": "0x70480275"
    },
    {
      "constant": false,
      "inputs": [
        {
          "name": "user",
          "type": "address"
        },
        {
          "name": "device",
          "type": "address"
        }
      ],
      "name": "addUserDeviceMapping",
      "outputs": [],
      "payable": false,
      "stateMutability": "nonpayable",
      "type": "function",
      "signature": "0x5cf50c3b"
    },
    {
      "constant": false,
      "inputs": [
        {
          "name": "admin",
          "type": "address"
        }
      ],
      "name": "delAdmin",
      "outputs": [],
      "payable": false,
      "stateMutability": "nonpayable",
      "type": "function",
      "signature": "0x62d91855"
    },
    {
      "constant": false,
      "inputs": [
        {
          "name": "user",
          "type": "address"
        }
      ],
      "name": "delUser",
      "outputs": [],
      "payable": false,
      "stateMutability": "nonpayable",
      "type": "function",
      "signature": "0xf849f379"
    },
    {
      "constant": false,
      "inputs": [
        {
          "name": "device",
          "type": "address"
        },
        {
          "name": "datacode",
          "type": "string"
        }
      ],
      "name": "requestAuthentication",
      "outputs": [],
      "payable": false,
      "stateMutability": "nonpayable",
      "type": "function",
      "signature": "0x97fdac4d"
    },
    {
      "constant": false,
      "inputs": [],
      "name": "validateTokens",
      "outputs": [],
      "payable": false,
      "stateMutability": "nonpayable",
      "type": "function",
      "signature": "0xd57562e9"
    }
  ],
  "bytecode": "0x60806040526000805534801561001457600080fd5b5060013390806001815401808255809150509060018203906000526020600020016000909192909190916101000a81548173ffffffffffffffffffffffffffffffffffffffff021916908373ffffffffffffffffffffffffffffffffffffffff16021790555050611a5b8061008a6000396000f3fe6080604052600436106100a4576000357c0100000000000000000000000000000000000000000000000000000000900463ffffffff16806316a3980b146100a95780633192c6c91461015d578063569bac52146101f85780635cf50c3b146102cd57806362d918551461033e578063704802751461038f578063953c8133146103e057806397fdac4d14610495578063d57562e91461057d578063f849f37914610594575b600080fd5b3480156100b557600080fd5b506100e2600480360360208110156100cc57600080fd5b81019080803590602001909291905050506105e5565b6040518080602001828103825283818151815260200191508051906020019080838360005b83811015610122578082015181840152602081019050610107565b50505050905090810190601f16801561014f5780820380516001836020036101000a031916815260200191505b509250505060405180910390f35b34801561016957600080fd5b506101b66004803603604081101561018057600080fd5b81019080803573ffffffffffffffffffffffffffffffffffffffff16906020019092919080359060200190929190505050610695565b604051808273ffffffffffffffffffffffffffffffffffffffff1673ffffffffffffffffffffffffffffffffffffffff16815260200191505060405180910390f35b34801561020457600080fd5b506102516004803603604081101561021b57600080fd5b81019080803573ffffffffffffffffffffffffffffffffffffffff169060200190929190803590602001909291905050506106e2565b604051808481526020018373ffffffffffffffffffffffffffffffffffffffff1673ffffffffffffffffffffffffffffffffffffffff1681526020018273ffffffffffffffffffffffffffffffffffffffff1673ffffffffffffffffffffffffffffffffffffffff168152602001935050505060405180910390f35b3480156102d957600080fd5b5061033c600480360360408110156102f057600080fd5b81019080803573ffffffffffffffffffffffffffffffffffffffff169060200190929190803573ffffffffffffffffffffffffffffffffffffffff169060200190929190505050610768565b005b34801561034a57600080fd5b5061038d6004803603602081101561036157600080fd5b81019080803573ffffffffffffffffffffffffffffffffffffffff169060200190929190505050610aaa565b005b34801561039b57600080fd5b506103de600480360360208110156103b257600080fd5b81019080803573ffffffffffffffffffffffffffffffffffffffff169060200190929190505050610d6c565b005b3480156103ec57600080fd5b506104196004803603602081101561040357600080fd5b8101908080359060200190929190505050610f17565b604051808481526020018373ffffffffffffffffffffffffffffffffffffffff1673ffffffffffffffffffffffffffffffffffffffff1681526020018273ffffffffffffffffffffffffffffffffffffffff1673ffffffffffffffffffffffffffffffffffffffff168152602001935050505060405180910390f35b3480156104a157600080fd5b5061057b600480360360408110156104b857600080fd5b81019080803573ffffffffffffffffffffffffffffffffffffffff169060200190929190803590602001906401000000008111156104f557600080fd5b82018360208201111561050757600080fd5b8035906020019184600183028401116401000000008311171561052957600080fd5b91908080601f016020809104026020016040519081016040528093929190818152602001838380828437600081840152601f19601f820116905080830192505050505050509192919290505050610f90565b005b34801561058957600080fd5b5061059261146f565b005b3480156105a057600080fd5b506105e3600480360360208110156105b757600080fd5b81019080803573ffffffffffffffffffffffffffffffffffffffff1690602001909291905050506117d9565b005b60056020528060005260406000206000915090508054600181600116156101000203166002900480601f01602080910402602001604051908101604052809291908181526020018280546001816001161561010002031660029004801561068d5780601f106106625761010080835404028352916020019161068d565b820191906000526020600020905b81548152906001019060200180831161067057829003601f168201915b505050505081565b6003602052816000526040600020818154811015156106b057fe5b906000526020600020016000915091509054906101000a900473ffffffffffffffffffffffffffffffffffffffff1681565b6004602052816000526040600020818154811015156106fd57fe5b9060005260206000209060030201600091509150508060000154908060010160009054906101000a900473ffffffffffffffffffffffffffffffffffffffff16908060020160009054906101000a900473ffffffffffffffffffffffffffffffffffffffff16905083565b600080905060008090505b6001805490508110156108035760018181548110151561078f57fe5b9060005260206000200160009054906101000a900473ffffffffffffffffffffffffffffffffffffffff1673ffffffffffffffffffffffffffffffffffffffff163373ffffffffffffffffffffffffffffffffffffffff1614156107f65760019150610803565b8080600101915050610773565b50600115158115151415610aa557600080905060008090505b600360008673ffffffffffffffffffffffffffffffffffffffff1673ffffffffffffffffffffffffffffffffffffffff16815260200190815260200160002080549050811015610926578373ffffffffffffffffffffffffffffffffffffffff16600360008773ffffffffffffffffffffffffffffffffffffffff1673ffffffffffffffffffffffffffffffffffffffff168152602001908152602001600020828154811015156108c957fe5b9060005260206000200160009054906101000a900473ffffffffffffffffffffffffffffffffffffffff1673ffffffffffffffffffffffffffffffffffffffff1614156109195760019150610926565b808060010191505061081c565b50600015158115151415610aa357600360008573ffffffffffffffffffffffffffffffffffffffff1673ffffffffffffffffffffffffffffffffffffffff1681526020019081526020016000208390806001815401808255809150509060018203906000526020600020016000909192909190916101000a81548173ffffffffffffffffffffffffffffffffffffffff021916908373ffffffffffffffffffffffffffffffffffffffff160217905550507f2bcf37722896726376c458b554088e6faf08f08a84cf6bb5709da9e1fd968ddf848433604051808473ffffffffffffffffffffffffffffffffffffffff1673ffffffffffffffffffffffffffffffffffffffff1681526020018373ffffffffffffffffffffffffffffffffffffffff1673ffffffffffffffffffffffffffffffffffffffff1681526020018273ffffffffffffffffffffffffffffffffffffffff1673ffffffffffffffffffffffffffffffffffffffff168152602001935050505060405180910390a15b505b505050565b600080905060008090505b600180549050811015610b4557600181815481101515610ad157fe5b9060005260206000200160009054906101000a900473ffffffffffffffffffffffffffffffffffffffff1673ffffffffffffffffffffffffffffffffffffffff163373ffffffffffffffffffffffffffffffffffffffff161415610b385760019150610b45565b8080600101915050610ab5565b50600115158115151415610d685760026001805490501080610b9257503373ffffffffffffffffffffffffffffffffffffffff168273ffffffffffffffffffffffffffffffffffffffff16145b15610c05576040517f08c379a000000000000000000000000000000000000000000000000000000000815260040180806020018281038252600f8152602001807f64656c41646d696e206661696c6564000000000000000000000000000000000081525060200191505060405180910390fd5b60008090505b600180549050811015610d66578273ffffffffffffffffffffffffffffffffffffffff16600182815481101515610c3e57fe5b9060005260206000200160009054906101000a900473ffffffffffffffffffffffffffffffffffffffff1673ffffffffffffffffffffffffffffffffffffffff161415610d5957600181815481101515610c9457fe5b9060005260206000200160006101000a81549073ffffffffffffffffffffffffffffffffffffffff02191690557f6ac01b7aa18a8f6fd542477b7bbab44275bf3d95edf08e9404bb423ef2356da18333604051808373ffffffffffffffffffffffffffffffffffffffff1673ffffffffffffffffffffffffffffffffffffffff1681526020018273ffffffffffffffffffffffffffffffffffffffff1673ffffffffffffffffffffffffffffffffffffffff1681526020019250505060405180910390a15b8080600101915050610c0b565b505b5050565b600080905060008090505b600180549050811015610e0757600181815481101515610d9357fe5b9060005260206000200160009054906101000a900473ffffffffffffffffffffffffffffffffffffffff1673ffffffffffffffffffffffffffffffffffffffff163373ffffffffffffffffffffffffffffffffffffffff161415610dfa5760019150610e07565b8080600101915050610d77565b50600115158115151415610f135760018290806001815401808255809150509060018203906000526020600020016000909192909190916101000a81548173ffffffffffffffffffffffffffffffffffffffff021916908373ffffffffffffffffffffffffffffffffffffffff160217905550507fbf3f493c772c8c283fd124432c2d0f539ab343faa04258fe88e52912d36b102b8233604051808373ffffffffffffffffffffffffffffffffffffffff1673ffffffffffffffffffffffffffffffffffffffff1681526020018273ffffffffffffffffffffffffffffffffffffffff1673ffffffffffffffffffffffffffffffffffffffff1681526020019250505060405180910390a15b5050565b600281815481101515610f2657fe5b90600052602060002090600302016000915090508060000154908060010160009054906101000a900473ffffffffffffffffffffffffffffffffffffffff16908060020160009054906101000a900473ffffffffffffffffffffffffffffffffffffffff16905083565b600080905060008090505b600360003373ffffffffffffffffffffffffffffffffffffffff1673ffffffffffffffffffffffffffffffffffffffff168152602001908152602001600020805490508110156110a5578373ffffffffffffffffffffffffffffffffffffffff16600360003373ffffffffffffffffffffffffffffffffffffffff1673ffffffffffffffffffffffffffffffffffffffff1681526020019081526020016000208281548110151561104857fe5b9060005260206000200160009054906101000a900473ffffffffffffffffffffffffffffffffffffffff1673ffffffffffffffffffffffffffffffffffffffff16141561109857600191506110a5565b8080600101915050610f9b565b50801515611149577f3b86ec0da552157df039c28e2e45926f7bc2e9c85e1f431d201929912acd96b98333604051808373ffffffffffffffffffffffffffffffffffffffff1673ffffffffffffffffffffffffffffffffffffffff1681526020018273ffffffffffffffffffffffffffffffffffffffff1673ffffffffffffffffffffffffffffffffffffffff1681526020019250505060405180910390a161146a565b7fd42c368decf104a7572c7884ea7028fe04ef7d3e76dbd706484f9175d6c4ec623384604051808373ffffffffffffffffffffffffffffffffffffffff1673ffffffffffffffffffffffffffffffffffffffff1681526020018273ffffffffffffffffffffffffffffffffffffffff1673ffffffffffffffffffffffffffffffffffffffff1681526020019250505060405180910390a16000833344604051602001808473ffffffffffffffffffffffffffffffffffffffff1673ffffffffffffffffffffffffffffffffffffffff166c010000000000000000000000000281526014018373ffffffffffffffffffffffffffffffffffffffff1673ffffffffffffffffffffffffffffffffffffffff166c01000000000000000000000000028152601401828152602001935050505060405160208183030381529060405280519060200120905060026060604051908101604052808381526020013373ffffffffffffffffffffffffffffffffffffffff1681526020018673ffffffffffffffffffffffffffffffffffffffff16815250908060018154018082558091505090600182039060005260206000209060030201600090919290919091506000820151816000015560208201518160010160006101000a81548173ffffffffffffffffffffffffffffffffffffffff021916908373ffffffffffffffffffffffffffffffffffffffff16021790555060408201518160020160006101000a81548173ffffffffffffffffffffffffffffffffffffffff021916908373ffffffffffffffffffffffffffffffffffffffff160217905550505050826005600083815260200190815260200160002090805190602001906113c8929190611969565b507f764d4a5ba0079372365fc2412e51052d6a9c7d0a5b97293f41301dd572046ff6813386604051808481526020018373ffffffffffffffffffffffffffffffffffffffff1673ffffffffffffffffffffffffffffffffffffffff1681526020018273ffffffffffffffffffffffffffffffffffffffff1673ffffffffffffffffffffffffffffffffffffffff168152602001935050505060405180910390a1505b505050565b600080905060008090505b6002805490508110156117d5573373ffffffffffffffffffffffffffffffffffffffff166002828154811015156114ad57fe5b906000526020600020906003020160020160009054906101000a900473ffffffffffffffffffffffffffffffffffffffff1673ffffffffffffffffffffffffffffffffffffffff1614156117c35760003360028381548110151561150d57fe5b906000526020600020906003020160010160009054906101000a900473ffffffffffffffffffffffffffffffffffffffff1644604051602001808473ffffffffffffffffffffffffffffffffffffffff1673ffffffffffffffffffffffffffffffffffffffff166c010000000000000000000000000281526014018373ffffffffffffffffffffffffffffffffffffffff1673ffffffffffffffffffffffffffffffffffffffff166c010000000000000000000000000281526014018281526020019350505050604051602081830303815290604052805190602001209050806002838154811015156115fc57fe5b90600052602060002090600302016000015414156117bd57600192507f4960b5088412785f15ed12cad734be8cef1c471a162a3614c80c428bce6a0d8b6005600083815260200190815260200160002060405180806020018281038252838181546001816001161561010002031660029004815260200191508054600181600116156101000203166002900480156116d55780601f106116aa576101008083540402835291602001916116d5565b820191906000526020600020905b8154815290600101906020018083116116b857829003601f168201915b50509250505060405180910390a16002828154811015156116f257fe5b90600052602060002090600302016000808201600090556001820160006101000a81549073ffffffffffffffffffffffffffffffffffffffff02191690556002820160006101000a81549073ffffffffffffffffffffffffffffffffffffffff021916905550507f450fc94914c0b98b910d01457f7b49d0e734ad80103ebd4dea5f1f8ecd3bb0cb33604051808273ffffffffffffffffffffffffffffffffffffffff1673ffffffffffffffffffffffffffffffffffffffff16815260200191505060405180910390a15b506117c8565b600080fd5b808060010191505061147a565b5050565b600080905060008090505b6001805490508110156118745760018181548110151561180057fe5b9060005260206000200160009054906101000a900473ffffffffffffffffffffffffffffffffffffffff1673ffffffffffffffffffffffffffffffffffffffff163373ffffffffffffffffffffffffffffffffffffffff1614156118675760019150611874565b80806001019150506117e4565b5060011515811515141561196557600360008373ffffffffffffffffffffffffffffffffffffffff1673ffffffffffffffffffffffffffffffffffffffff16815260200190815260200160002060006118cd91906119e9565b7fd583bac0996795f46c61a719ca6954d32d592a449d37914310382ab0d2f645568233604051808373ffffffffffffffffffffffffffffffffffffffff1673ffffffffffffffffffffffffffffffffffffffff1681526020018273ffffffffffffffffffffffffffffffffffffffff1673ffffffffffffffffffffffffffffffffffffffff1681526020019250505060405180910390a15b5050565b828054600181600116156101000203166002900490600052602060002090601f016020900481019282601f106119aa57805160ff19168380011785556119d8565b828001600101855582156119d8579182015b828111156119d75782518255916020019190600101906119bc565b5b5090506119e59190611a0a565b5090565b5080546000825590600052602060002090810190611a079190611a0a565b50565b611a2c91905b80821115611a28576000816000905550600101611a10565b5090565b9056fea165627a7a72305820e7f0e5466a6ad3f9d1932645efb1a1a7eed4c7da36a01e069e39065ca3fd5d1b0029",
  "source": "pragma solidity ^0.5.0;\r\ncontract AuthenticationContract{\r\n    uint256 count=0; //count for all the tokens\r\n\r\n    address [] admins; // admins of the system\r\n    struct Token{ // struct for the information of a given token\r\n        bytes32 UID;\r\n        address user;\r\n        address dev;\r\n    }\r\n    Token [] public Tokens ;//token array\r\n    mapping (address => address []) public users_devices;\r\n    mapping (address => Token[]) public device_tokens;\r\n    mapping (bytes32 => string )public data_mapping;\r\n    \r\n    \r\n   constructor()public {\r\n        admins.push(msg.sender); //creater of contract is the first admin\r\n    }\r\n    \r\n\r\n    modifier onlyAdmin{ // for user check at modifications\r\n        bool admin=false;\r\n        for(uint256 i = 0; i < admins.length;i++){\r\n            if(msg.sender==admins[i]){\r\n                admin=true;\r\n                break;\r\n            }\r\n        }\r\n        if(admin == true)\r\n        _;\r\n    }\r\n\r\n    function addAdmin(address newAdmin)public onlyAdmin{ \r\n                admins.push(newAdmin);\r\n                emit AdminAdded(newAdmin,msg.sender);\r\n            \r\n        \r\n        \r\n    }\r\n    \r\n     \r\n    function addUserDeviceMapping(address user, address device)public onlyAdmin{ \r\n        bool deviceExists=false;\r\n        for(uint256 i = 0; i<users_devices[user].length; i++){\r\n        if(users_devices[user][i]==device){ \r\n                deviceExists=true;\r\n                break;\r\n            }\r\n        }\r\n\r\n       \r\n        if(deviceExists == false){\r\n        users_devices[user].push(device);\r\n        emit UserDeviceMappingAdded(user,device,msg.sender); }\r\n        \r\n    }\r\n    function delAdmin (address admin) public onlyAdmin{ \r\n        if(admins.length<2 || admin==msg.sender)\r\n            revert('delAdmin failed');\r\n        else {\r\n            uint256 i = 0;\r\n            while(i < admins.length){\r\n                if(admins[i]== admin){\r\n                    delete admins[i];\r\n                    emit AdminDeleted(admin,msg.sender);\r\n                }\r\n                i++;\r\n            }\r\n        }\r\n    }\r\n    function delUser(address user) public onlyAdmin{ \r\n        delete users_devices[user];\r\n        emit UserDeviceAllMappingDeleted(user,msg.sender);\r\n    }\r\n    function requestAuthentication(address device,string memory datacode) public { \r\n        // Check if device exists in fog-device mapping\r\n        bool deviceExists=false;\r\n        for(uint256 i = 0; i<users_devices[msg.sender].length; i++){\r\n            if(users_devices[msg.sender][i]==device){ // check the devices of a user\r\n                deviceExists=true;\r\n                break;\r\n            }\r\n        }\r\n        if(!deviceExists){\r\n            //trigger DeviceDoesnotExist event\r\n            emit DeviceDoesnotExist(device,msg.sender);\r\n        }\r\n        else{\r\n            emit Authenticated(msg.sender,device);\r\n            bytes32 UID= keccak256(abi.encodePacked(device,msg.sender,block.difficulty));\r\n            Tokens.push(Token(UID,msg.sender,device));\r\n            data_mapping[UID]=datacode;\r\n            emit TokenCreated(UID,msg.sender,device);\r\n        }\r\n    }\r\n    function validateTokens()public {\r\n        bool validate=false;\r\n        \r\n        for(uint256 i = 0 ; i<Tokens.length;i++){\r\n            if(Tokens[i].dev == msg.sender){\r\n                bytes32 tkid = keccak256(abi.encodePacked(msg.sender,Tokens[i].user,block.difficulty));\r\n                \r\n                if(Tokens[i].UID == tkid){\r\n                    validate=true;\r\n                    emit SucessfulyRetrievedData(data_mapping[tkid]);\r\n                    delete Tokens[i];\r\n                    emit ValidationSuccess( msg.sender );\r\n                }\r\n            }\r\n\t    else{\r\n\t\trevert();\r\n\t    }\r\n        }\r\n    }\r\n    event AdminAdded(address newAdmin, address addingAdmin);\r\n    event UserDeviceMappingAdded(address user, address device, address addingAdmin);\r\n    event UserDeviceAllMappingDeleted(address user,  address deletingAdmin);\r\n    event AdminDeleted(address newAdmin, address deletingAdmin); \r\n    event TokenCreated(bytes32 uid, address user, address device);\r\n    event Authenticated(address user, address device);\r\n    event DeviceDoesnotExist(address device, address sender);\r\n    event ValidationSuccess(address sender);\r\n    event SucessfulyRetrievedData(string data);\r\n\r\n}\r\n\r\ncontract user{\r\nfunction Auth(address addrAuthenticationContract,address device,string memory payload)public{\r\n        AuthenticationContract ob1 = AuthenticationContract(addrAuthenticationContract);\r\n        ob1.requestAuthentication(device,payload);\r\n    }\r\n}\r\ncontract device{\r\nfunction Validate(address addrAuthenticationContract)public{\r\n\tAuthenticationContract ob2=AuthenticationContract(addrAuthenticationContract);\r\n\tob2.validateTokens();\r\n\t}\r\n}\r\n\r\n",
  "sourcePath": "C:/Users/RISHI/Project/contracts/AuthenticationContract.sol",
  "compiler": {
    "name": "solc",
    "version": "0.5.0+commit.1d4f565a.Emscripten.clang"
  },
  "schemaVersion": "3.0.5",
  "updatedAt": "2019-04-08T20:30:47.952Z",
  "devdoc": {
    "methods": {}
  },
  "userdoc": {
    "methods": {}
  }
}