{
  "contractName": "user",
  "abi": [
    {
      "constant": false,
      "inputs": [
        {
          "name": "addrAuthenticationContract",
          "type": "address"
        },
        {
          "name": "device",
          "type": "address"
        },
        {
          "name": "payload",
          "type": "string"
        }
      ],
      "name": "Auth",
      "outputs": [],
      "payable": false,
      "stateMutability": "nonpayable",
      "type": "function",
      "signature": "0xd86f2667"
    }
  ],
  "bytecode": "0x608060405234801561001057600080fd5b506102a5806100206000396000f3fe608060405260043610610041576000357c0100000000000000000000000000000000000000000000000000000000900463ffffffff168063d86f266714610046575b600080fd5b34801561005257600080fd5b5061014c6004803603606081101561006957600080fd5b81019080803573ffffffffffffffffffffffffffffffffffffffff169060200190929190803573ffffffffffffffffffffffffffffffffffffffff169060200190929190803590602001906401000000008111156100c657600080fd5b8201836020820111156100d857600080fd5b803590602001918460018302840111640100000000831117156100fa57600080fd5b91908080601f016020809104026020016040519081016040528093929190818152602001838380828437600081840152601f19601f82011690508083019250505050505050919291929050505061014e565b005b60008390508073ffffffffffffffffffffffffffffffffffffffff166397fdac4d84846040518363ffffffff167c0100000000000000000000000000000000000000000000000000000000028152600401808373ffffffffffffffffffffffffffffffffffffffff1673ffffffffffffffffffffffffffffffffffffffff16815260200180602001828103825283818151815260200191508051906020019080838360005b8381101561020e5780820151818401526020810190506101f3565b50505050905090810190601f16801561023b5780820380516001836020036101000a031916815260200191505b509350505050600060405180830381600087803b15801561025b57600080fd5b505af115801561026f573d6000803e3d6000fd5b505050505050505056fea165627a7a72305820d54d2d0eeb20efff7d11943ae65e3f2faf49f919988a586824836d493e816cab0029",
  "source": "pragma solidity ^0.5.0;\r\ncontract AuthenticationContract{\r\n    uint256 count=0; //count for all the tokens\r\n\r\n    address [] admins; // admins of the system\r\n    struct Token{ // struct for the information of a given token\r\n        bytes32 UID;\r\n        address user;\r\n        address dev;\r\n    }\r\n    Token [] public Tokens ;//token array\r\n    mapping (address => address []) public users_devices;\r\n    mapping (address => Token[]) public device_tokens;\r\n    mapping (bytes32 => string )public data_mapping;\r\n    \r\n    \r\n   constructor()public {\r\n        admins.push(msg.sender); //creater of contract is the first admin\r\n    }\r\n    \r\n\r\n    modifier onlyAdmin{ // for user check at modifications\r\n        bool admin=false;\r\n        for(uint256 i = 0; i < admins.length;i++){\r\n            if(msg.sender==admins[i]){\r\n                admin=true;\r\n                break;\r\n            }\r\n        }\r\n        if(admin == true)\r\n        _;\r\n    }\r\n\r\n    function addAdmin(address newAdmin)public onlyAdmin{ \r\n                admins.push(newAdmin);\r\n                emit AdminAdded(newAdmin,msg.sender);\r\n            \r\n        \r\n        \r\n    }\r\n    \r\n     \r\n    function addUserDeviceMapping(address user, address device)public onlyAdmin{ \r\n        bool deviceExists=false;\r\n        for(uint256 i = 0; i<users_devices[user].length; i++){\r\n        if(users_devices[user][i]==device){ \r\n                deviceExists=true;\r\n                break;\r\n            }\r\n        }\r\n\r\n       \r\n        if(deviceExists == false){\r\n        users_devices[user].push(device);\r\n        emit UserDeviceMappingAdded(user,device,msg.sender); }\r\n        \r\n    }\r\n    function delAdmin (address admin) public onlyAdmin{ \r\n        if(admins.length<2 || admin==msg.sender)\r\n            revert('delAdmin failed');\r\n        else {\r\n            uint256 i = 0;\r\n            while(i < admins.length){\r\n                if(admins[i]== admin){\r\n                    delete admins[i];\r\n                    emit AdminDeleted(admin,msg.sender);\r\n                }\r\n                i++;\r\n            }\r\n        }\r\n    }\r\n    function delUser(address user) public onlyAdmin{ \r\n        delete users_devices[user];\r\n        emit UserDeviceAllMappingDeleted(user,msg.sender);\r\n    }\r\n    function requestAuthentication(address device,string memory datacode) public { \r\n        // Check if device exists in fog-device mapping\r\n        bool deviceExists=false;\r\n        for(uint256 i = 0; i<users_devices[msg.sender].length; i++){\r\n            if(users_devices[msg.sender][i]==device){ // check the devices of a user\r\n                deviceExists=true;\r\n                break;\r\n            }\r\n        }\r\n        if(!deviceExists){\r\n            //trigger DeviceDoesnotExist event\r\n            emit DeviceDoesnotExist(device,msg.sender);\r\n        }\r\n        else{\r\n            emit Authenticated(msg.sender,device);\r\n            bytes32 UID= keccak256(abi.encodePacked(device,msg.sender,block.difficulty));\r\n            Tokens.push(Token(UID,msg.sender,device));\r\n            data_mapping[UID]=datacode;\r\n            emit TokenCreated(UID,msg.sender,device);\r\n        }\r\n    }\r\n    function validateTokens()public {\r\n        bool validate=false;\r\n        \r\n        for(uint256 i = 0 ; i<Tokens.length;i++){\r\n            if(Tokens[i].dev == msg.sender){\r\n                bytes32 tkid = keccak256(abi.encodePacked(msg.sender,Tokens[i].user,block.difficulty));\r\n                \r\n                if(Tokens[i].UID == tkid){\r\n                    validate=true;\r\n                    emit SucessfulyRetrievedData(data_mapping[tkid]);\r\n                    delete Tokens[i];\r\n                    emit ValidationSuccess( msg.sender );\r\n                }\r\n            }\r\n\t    else{\r\n\t\trevert();\r\n\t    }\r\n        }\r\n    }\r\n    event AdminAdded(address newAdmin, address addingAdmin);\r\n    event UserDeviceMappingAdded(address user, address device, address addingAdmin);\r\n    event UserDeviceAllMappingDeleted(address user,  address deletingAdmin);\r\n    event AdminDeleted(address newAdmin, address deletingAdmin); \r\n    event TokenCreated(bytes32 uid, address user, address device);\r\n    event Authenticated(address user, address device);\r\n    event DeviceDoesnotExist(address device, address sender);\r\n    event ValidationSuccess(address sender);\r\n    event SucessfulyRetrievedData(string data);\r\n\r\n}\r\n\r\ncontract user{\r\nfunction Auth(address addrAuthenticationContract,address device,string memory payload)public{\r\n        AuthenticationContract ob1 = AuthenticationContract(addrAuthenticationContract);\r\n        ob1.requestAuthentication(device,payload);\r\n    }\r\n}\r\ncontract device{\r\nfunction Validate(address addrAuthenticationContract)public{\r\n\tAuthenticationContract ob2=AuthenticationContract(addrAuthenticationContract);\r\n\tob2.validateTokens();\r\n\t}\r\n}\r\n\r\n",
  "sourcePath": "C:/Users/RISHI/Project/contracts/AuthenticationContract.sol",
  "compiler": {
    "name": "solc",
    "version": "0.5.0+commit.1d4f565a.Emscripten.clang"
  },
  "schemaVersion": "3.0.5",
  "updatedAt": "2019-04-08T20:30:47.921Z",
  "devdoc": {
    "methods": {}
  },
  "userdoc": {
    "methods": {}
  }
}